{
  "_format": "hh-sol-artifact-1",
  "contractName": "TokenFaucet",
  "sourceName": "contracts/TokenFaucet.sol",
  "abi": [
    {
      "inputs": [
        {
          "internalType": "address",
          "name": "tokenAddress",
          "type": "address"
        }
      ],
      "stateMutability": "nonpayable",
      "type": "constructor"
    },
    {
      "inputs": [
        {
          "internalType": "address",
          "name": "owner",
          "type": "address"
        }
      ],
      "name": "OwnableInvalidOwner",
      "type": "error"
    },
    {
      "inputs": [
        {
          "internalType": "address",
          "name": "account",
          "type": "address"
        }
      ],
      "name": "OwnableUnauthorizedAccount",
      "type": "error"
    },
    {
      "inputs": [],
      "name": "ReentrancyGuardReentrantCall",
      "type": "error"
    },
    {
      "anonymous": false,
      "inputs": [
        {
          "indexed": false,
          "internalType": "bool",
          "name": "paused",
          "type": "bool"
        }
      ],
      "name": "FaucetPaused",
      "type": "event"
    },
    {
      "anonymous": false,
      "inputs": [
        {
          "indexed": true,
          "internalType": "address",
          "name": "previousOwner",
          "type": "address"
        },
        {
          "indexed": true,
          "internalType": "address",
          "name": "newOwner",
          "type": "address"
        }
      ],
      "name": "OwnershipTransferred",
      "type": "event"
    },
    {
      "anonymous": false,
      "inputs": [
        {
          "indexed": true,
          "internalType": "address",
          "name": "user",
          "type": "address"
        },
        {
          "indexed": false,
          "internalType": "uint256",
          "name": "amount",
          "type": "uint256"
        },
        {
          "indexed": false,
          "internalType": "uint256",
          "name": "timestamp",
          "type": "uint256"
        }
      ],
      "name": "TokensClaimed",
      "type": "event"
    },
    {
      "inputs": [],
      "name": "COOLDOWN_TIME",
      "outputs": [
        {
          "internalType": "uint256",
          "name": "",
          "type": "uint256"
        }
      ],
      "stateMutability": "view",
      "type": "function"
    },
    {
      "inputs": [],
      "name": "FAUCET_AMOUNT",
      "outputs": [
        {
          "internalType": "uint256",
          "name": "",
          "type": "uint256"
        }
      ],
      "stateMutability": "view",
      "type": "function"
    },
    {
      "inputs": [],
      "name": "MAX_CLAIM_AMOUNT",
      "outputs": [
        {
          "internalType": "uint256",
          "name": "",
          "type": "uint256"
        }
      ],
      "stateMutability": "view",
      "type": "function"
    },
    {
      "inputs": [
        {
          "internalType": "address",
          "name": "user",
          "type": "address"
        }
      ],
      "name": "canClaim",
      "outputs": [
        {
          "internalType": "bool",
          "name": "",
          "type": "bool"
        }
      ],
      "stateMutability": "view",
      "type": "function"
    },
    {
      "inputs": [],
      "name": "isPaused",
      "outputs": [
        {
          "internalType": "bool",
          "name": "",
          "type": "bool"
        }
      ],
      "stateMutability": "view",
      "type": "function"
    },
    {
      "inputs": [
        {
          "internalType": "address",
          "name": "",
          "type": "address"
        }
      ],
      "name": "lastClaimAt",
      "outputs": [
        {
          "internalType": "uint256",
          "name": "",
          "type": "uint256"
        }
      ],
      "stateMutability": "view",
      "type": "function"
    },
    {
      "inputs": [],
      "name": "owner",
      "outputs": [
        {
          "internalType": "address",
          "name": "",
          "type": "address"
        }
      ],
      "stateMutability": "view",
      "type": "function"
    },
    {
      "inputs": [
        {
          "internalType": "address",
          "name": "user",
          "type": "address"
        }
      ],
      "name": "remainingAllowance",
      "outputs": [
        {
          "internalType": "uint256",
          "name": "",
          "type": "uint256"
        }
      ],
      "stateMutability": "view",
      "type": "function"
    },
    {
      "inputs": [],
      "name": "renounceOwnership",
      "outputs": [],
      "stateMutability": "nonpayable",
      "type": "function"
    },
    {
      "inputs": [],
      "name": "requestTokens",
      "outputs": [],
      "stateMutability": "nonpayable",
      "type": "function"
    },
    {
      "inputs": [
        {
          "internalType": "bool",
          "name": "paused_",
          "type": "bool"
        }
      ],
      "name": "setPaused",
      "outputs": [],
      "stateMutability": "nonpayable",
      "type": "function"
    },
    {
      "inputs": [],
      "name": "token",
      "outputs": [
        {
          "internalType": "contract IToken",
          "name": "",
          "type": "address"
        }
      ],
      "stateMutability": "view",
      "type": "function"
    },
    {
      "inputs": [
        {
          "internalType": "address",
          "name": "",
          "type": "address"
        }
      ],
      "name": "totalClaimed",
      "outputs": [
        {
          "internalType": "uint256",
          "name": "",
          "type": "uint256"
        }
      ],
      "stateMutability": "view",
      "type": "function"
    },
    {
      "inputs": [
        {
          "internalType": "address",
          "name": "newOwner",
          "type": "address"
        }
      ],
      "name": "transferOwnership",
      "outputs": [],
      "stateMutability": "nonpayable",
      "type": "function"
    }
  ],
  "bytecode": "0x60a06040523480156200001157600080fd5b50604051620012f4380380620012f48339818101604052810190620000379190620002bf565b336001600081905550600073ffffffffffffffffffffffffffffffffffffffff168173ffffffffffffffffffffffffffffffffffffffff1603620000b55760006040517f1e4fbdf7000000000000000000000000000000000000000000000000000000008152600401620000ac919062000302565b60405180910390fd5b620000c6816200018f60201b60201c565b50600073ffffffffffffffffffffffffffffffffffffffff168173ffffffffffffffffffffffffffffffffffffffff160362000139576040517f08c379a0000000000000000000000000000000000000000000000000000000008152600401620001309062000380565b60405180910390fd5b8073ffffffffffffffffffffffffffffffffffffffff1660808173ffffffffffffffffffffffffffffffffffffffff16815250506000600160146101000a81548160ff02191690831515021790555050620003a2565b6000600160009054906101000a900473ffffffffffffffffffffffffffffffffffffffff16905081600160006101000a81548173ffffffffffffffffffffffffffffffffffffffff021916908373ffffffffffffffffffffffffffffffffffffffff1602179055508173ffffffffffffffffffffffffffffffffffffffff168173ffffffffffffffffffffffffffffffffffffffff167f8be0079c531659141344cd1fd0a4f28419497f9722a3daafe3b4186f6b6457e060405160405180910390a35050565b600080fd5b600073ffffffffffffffffffffffffffffffffffffffff82169050919050565b600062000287826200025a565b9050919050565b62000299816200027a565b8114620002a557600080fd5b50565b600081519050620002b9816200028e565b92915050565b600060208284031215620002d857620002d762000255565b5b6000620002e884828501620002a8565b91505092915050565b620002fc816200027a565b82525050565b6000602082019050620003196000830184620002f1565b92915050565b600082825260208201905092915050565b7f4661756365743a20746f6b656e2061646472657373206973207a65726f000000600082015250565b600062000368601d836200031f565b9150620003758262000330565b602082019050919050565b600060208201905081810360008301526200039b8162000359565b9050919050565b608051610f2f620003c56000396000818161055501526108fd0152610f2f6000f3fe608060405234801561001057600080fd5b50600436106100ea5760003560e01c8063b187bd261161008c578063ef5d9ae811610066578063ef5d9ae814610215578063f2fde38b14610245578063f357df6d14610261578063fc0c546a14610291576100ea565b8063b187bd26146101a9578063bf3506c1146101c7578063e362b4f7146101f7576100ea565b8063715018a6116100c8578063715018a614610145578063766976401461014f5780637d2632451461016d5780638da5cb5b1461018b576100ea565b806303822d3b146100ef57806316c38b3c1461011f578063359cf2b71461013b575b600080fd5b61010960048036038101906101049190610b27565b6102af565b6040516101169190610b6d565b60405180910390f35b61013960048036038101906101349190610bc0565b6102c7565b005b610143610323565b005b61014d61064d565b005b610157610661565b6040516101649190610b6d565b60405180910390f35b61017561066e565b6040516101829190610b6d565b60405180910390f35b610193610675565b6040516101a09190610bfc565b60405180910390f35b6101b161069f565b6040516101be9190610c26565b60405180910390f35b6101e160048036038101906101dc9190610b27565b6106b6565b6040516101ee9190610c26565b60405180910390f35b6101ff610797565b60405161020c9190610b6d565b60405180910390f35b61022f600480360381019061022a9190610b27565b6107a5565b60405161023c9190610b6d565b60405180910390f35b61025f600480360381019061025a9190610b27565b6107bd565b005b61027b60048036038101906102769190610b27565b610843565b6040516102889190610b6d565b60405180910390f35b6102996108fb565b6040516102a69190610ca0565b60405180910390f35b60026020528060005260406000206000915090505481565b6102cf61091f565b80600160146101000a81548160ff0219169083151502179055507f50cfd8deb0b293676ae69355a9eed053a00f81d3bd6a0ae4dc082629e6476f7f816040516103189190610c26565b60405180910390a150565b61032b6109a6565b600160149054906101000a900460ff161561037b576040517f08c379a000000000000000000000000000000000000000000000000000000000815260040161037290610d18565b60405180910390fd5b600033905062015180600260008373ffffffffffffffffffffffffffffffffffffffff1673ffffffffffffffffffffffffffffffffffffffff168152602001908152602001600020546103ce9190610d67565b421015610410576040517f08c379a000000000000000000000000000000000000000000000000000000000815260040161040790610de7565b60405180910390fd5b69021e19e0c9bab2400000683635c9adc5dea00000600360008473ffffffffffffffffffffffffffffffffffffffff1673ffffffffffffffffffffffffffffffffffffffff1681526020019081526020016000205461046f9190610d67565b11156104b0576040517f08c379a00000000000000000000000000000000000000000000000000000000081526004016104a790610e53565b60405180910390fd5b42600260008373ffffffffffffffffffffffffffffffffffffffff1673ffffffffffffffffffffffffffffffffffffffff16815260200190815260200160002081905550683635c9adc5dea00000600360008373ffffffffffffffffffffffffffffffffffffffff1673ffffffffffffffffffffffffffffffffffffffff168152602001908152602001600020600082825461054c9190610d67565b925050819055507f000000000000000000000000000000000000000000000000000000000000000073ffffffffffffffffffffffffffffffffffffffff166340c10f1982683635c9adc5dea000006040518363ffffffff1660e01b81526004016105b7929190610e73565b600060405180830381600087803b1580156105d157600080fd5b505af11580156105e5573d6000803e3d6000fd5b505050508073ffffffffffffffffffffffffffffffffffffffff167f9923b4306c6c030f2bdfbf156517d5983b87e15b96176da122cd4f2effa4ba7b683635c9adc5dea000004260405161063a929190610e9c565b60405180910390a25061064b6109ec565b565b61065561091f565b61065f60006109f6565b565b683635c9adc5dea0000081565b6201518081565b6000600160009054906101000a900473ffffffffffffffffffffffffffffffffffffffff16905090565b6000600160149054906101000a900460ff16905090565b6000600160149054906101000a900460ff16156106d65760009050610792565b62015180600260008473ffffffffffffffffffffffffffffffffffffffff1673ffffffffffffffffffffffffffffffffffffffff168152602001908152602001600020546107249190610d67565b4210156107345760009050610792565b69021e19e0c9bab2400000600360008473ffffffffffffffffffffffffffffffffffffffff1673ffffffffffffffffffffffffffffffffffffffff168152602001908152602001600020541061078d5760009050610792565b600190505b919050565b69021e19e0c9bab240000081565b60036020528060005260406000206000915090505481565b6107c561091f565b600073ffffffffffffffffffffffffffffffffffffffff168173ffffffffffffffffffffffffffffffffffffffff16036108375760006040517f1e4fbdf700000000000000000000000000000000000000000000000000000000815260040161082e9190610bfc565b60405180910390fd5b610840816109f6565b50565b600069021e19e0c9bab2400000600360008473ffffffffffffffffffffffffffffffffffffffff1673ffffffffffffffffffffffffffffffffffffffff168152602001908152602001600020541061089e57600090506108f6565b600360008373ffffffffffffffffffffffffffffffffffffffff1673ffffffffffffffffffffffffffffffffffffffff1681526020019081526020016000205469021e19e0c9bab24000006108f39190610ec5565b90505b919050565b7f000000000000000000000000000000000000000000000000000000000000000081565b610927610abc565b73ffffffffffffffffffffffffffffffffffffffff16610945610675565b73ffffffffffffffffffffffffffffffffffffffff16146109a457610968610abc565b6040517f118cdaa700000000000000000000000000000000000000000000000000000000815260040161099b9190610bfc565b60405180910390fd5b565b6002600054036109e2576040517f3ee5aeb500000000000000000000000000000000000000000000000000000000815260040160405180910390fd5b6002600081905550565b6001600081905550565b6000600160009054906101000a900473ffffffffffffffffffffffffffffffffffffffff16905081600160006101000a81548173ffffffffffffffffffffffffffffffffffffffff021916908373ffffffffffffffffffffffffffffffffffffffff1602179055508173ffffffffffffffffffffffffffffffffffffffff168173ffffffffffffffffffffffffffffffffffffffff167f8be0079c531659141344cd1fd0a4f28419497f9722a3daafe3b4186f6b6457e060405160405180910390a35050565b600033905090565b600080fd5b600073ffffffffffffffffffffffffffffffffffffffff82169050919050565b6000610af482610ac9565b9050919050565b610b0481610ae9565b8114610b0f57600080fd5b50565b600081359050610b2181610afb565b92915050565b600060208284031215610b3d57610b3c610ac4565b5b6000610b4b84828501610b12565b91505092915050565b6000819050919050565b610b6781610b54565b82525050565b6000602082019050610b826000830184610b5e565b92915050565b60008115159050919050565b610b9d81610b88565b8114610ba857600080fd5b50565b600081359050610bba81610b94565b92915050565b600060208284031215610bd657610bd5610ac4565b5b6000610be484828501610bab565b91505092915050565b610bf681610ae9565b82525050565b6000602082019050610c116000830184610bed565b92915050565b610c2081610b88565b82525050565b6000602082019050610c3b6000830184610c17565b92915050565b6000819050919050565b6000610c66610c61610c5c84610ac9565b610c41565b610ac9565b9050919050565b6000610c7882610c4b565b9050919050565b6000610c8a82610c6d565b9050919050565b610c9a81610c7f565b82525050565b6000602082019050610cb56000830184610c91565b92915050565b600082825260208201905092915050565b7f4661756365743a20706175736564000000000000000000000000000000000000600082015250565b6000610d02600e83610cbb565b9150610d0d82610ccc565b602082019050919050565b60006020820190508181036000830152610d3181610cf5565b9050919050565b7f4e487b7100000000000000000000000000000000000000000000000000000000600052601160045260246000fd5b6000610d7282610b54565b9150610d7d83610b54565b9250828201905080821115610d9557610d94610d38565b5b92915050565b7f4661756365743a20636f6f6c646f776e20616374697665000000000000000000600082015250565b6000610dd1601783610cbb565b9150610ddc82610d9b565b602082019050919050565b60006020820190508181036000830152610e0081610dc4565b9050919050565b7f4661756365743a206c69666574696d65206c696d697420726561636865640000600082015250565b6000610e3d601e83610cbb565b9150610e4882610e07565b602082019050919050565b60006020820190508181036000830152610e6c81610e30565b9050919050565b6000604082019050610e886000830185610bed565b610e956020830184610b5e565b9392505050565b6000604082019050610eb16000830185610b5e565b610ebe6020830184610b5e565b9392505050565b6000610ed082610b54565b9150610edb83610b54565b9250828203905081811115610ef357610ef2610d38565b5b9291505056fea26469706673582212206b89eef542b15ac0c5136dc9044808941983fc881609a3c582b204e854a4695264736f6c63430008140033",
  "linkReferences": {},
  "deployedLinkReferences": {}
}